{
  "contractName": "hug",
  "abi": [
    {
      "inputs": [],
      "stateMutability": "nonpayable",
      "type": "constructor"
    },
    {
      "anonymous": false,
      "inputs": [
        {
          "indexed": true,
          "internalType": "address",
          "name": "agent",
          "type": "address"
        },
        {
          "indexed": false,
          "internalType": "uint256",
          "name": "number",
          "type": "uint256"
        },
        {
          "indexed": false,
          "internalType": "uint256",
          "name": "openfee",
          "type": "uint256"
        }
      ],
      "name": "adding",
      "type": "event"
    },
    {
      "anonymous": false,
      "inputs": [
        {
          "indexed": true,
          "internalType": "address",
          "name": "agent",
          "type": "address"
        },
        {
          "indexed": false,
          "internalType": "uint256",
          "name": "number",
          "type": "uint256"
        },
        {
          "indexed": true,
          "internalType": "address",
          "name": "member",
          "type": "address"
        },
        {
          "indexed": false,
          "internalType": "uint256",
          "name": "joinfee",
          "type": "uint256"
        }
      ],
      "name": "joining",
      "type": "event"
    },
    {
      "anonymous": false,
      "inputs": [
        {
          "indexed": true,
          "internalType": "address payable",
          "name": "addr",
          "type": "address"
        },
        {
          "indexed": false,
          "internalType": "uint256",
          "name": "value",
          "type": "uint256"
        }
      ],
      "name": "refunding",
      "type": "event"
    },
    {
      "anonymous": false,
      "inputs": [
        {
          "indexed": true,
          "internalType": "address",
          "name": "agent",
          "type": "address"
        },
        {
          "indexed": false,
          "internalType": "uint256",
          "name": "number",
          "type": "uint256"
        },
        {
          "indexed": false,
          "internalType": "bool",
          "name": "doit",
          "type": "bool"
        },
        {
          "indexed": false,
          "internalType": "bool",
          "name": "butgo",
          "type": "bool"
        },
        {
          "indexed": false,
          "internalType": "address[]",
          "name": "absentlist",
          "type": "address[]"
        }
      ],
      "name": "result",
      "type": "event"
    },
    {
      "inputs": [],
      "name": "admin",
      "outputs": [
        {
          "internalType": "address payable",
          "name": "",
          "type": "address"
        }
      ],
      "stateMutability": "view",
      "type": "function"
    },
    {
      "inputs": [
        {
          "internalType": "address",
          "name": "",
          "type": "address"
        },
        {
          "internalType": "uint256",
          "name": "",
          "type": "uint256"
        }
      ],
      "name": "huglist",
      "outputs": [
        {
          "internalType": "string",
          "name": "contents",
          "type": "string"
        },
        {
          "internalType": "uint256",
          "name": "deadline",
          "type": "uint256"
        },
        {
          "internalType": "uint256",
          "name": "openfee",
          "type": "uint256"
        },
        {
          "internalType": "uint256",
          "name": "goalNum",
          "type": "uint256"
        },
        {
          "internalType": "uint256",
          "name": "joinfee",
          "type": "uint256"
        }
      ],
      "stateMutability": "view",
      "type": "function"
    },
    {
      "inputs": [],
      "name": "lock",
      "outputs": [
        {
          "internalType": "bool",
          "name": "",
          "type": "bool"
        }
      ],
      "stateMutability": "view",
      "type": "function"
    },
    {
      "inputs": [
        {
          "internalType": "bool",
          "name": "key",
          "type": "bool"
        }
      ],
      "name": "locking",
      "outputs": [],
      "stateMutability": "nonpayable",
      "type": "function"
    },
    {
      "inputs": [
        {
          "internalType": "string",
          "name": "_contents",
          "type": "string"
        },
        {
          "internalType": "uint256",
          "name": "number",
          "type": "uint256"
        },
        {
          "internalType": "uint256",
          "name": "_goalNum",
          "type": "uint256"
        },
        {
          "internalType": "uint256",
          "name": "_deadline",
          "type": "uint256"
        },
        {
          "internalType": "uint256",
          "name": "_joinfee",
          "type": "uint256"
        }
      ],
      "name": "addHug",
      "outputs": [],
      "stateMutability": "payable",
      "type": "function"
    },
    {
      "inputs": [
        {
          "internalType": "address",
          "name": "_agent",
          "type": "address"
        },
        {
          "internalType": "uint256",
          "name": "number",
          "type": "uint256"
        }
      ],
      "name": "join",
      "outputs": [],
      "stateMutability": "payable",
      "type": "function"
    },
    {
      "inputs": [
        {
          "internalType": "address payable",
          "name": "_agent",
          "type": "address"
        },
        {
          "internalType": "uint256",
          "name": "number",
          "type": "uint256"
        }
      ],
      "name": "reset",
      "outputs": [],
      "stateMutability": "nonpayable",
      "type": "function"
    },
    {
      "inputs": [
        {
          "internalType": "address payable",
          "name": "_agent",
          "type": "address"
        },
        {
          "internalType": "uint256",
          "name": "number",
          "type": "uint256"
        },
        {
          "internalType": "bool",
          "name": "doit",
          "type": "bool"
        },
        {
          "internalType": "bool",
          "name": "butgo",
          "type": "bool"
        },
        {
          "internalType": "address[]",
          "name": "absentlist",
          "type": "address[]"
        },
        {
          "internalType": "uint256",
          "name": "opengas",
          "type": "uint256"
        },
        {
          "internalType": "uint256[]",
          "name": "joingas",
          "type": "uint256[]"
        }
      ],
      "name": "refund",
      "outputs": [],
      "stateMutability": "nonpayable",
      "type": "function"
    },
    {
      "inputs": [],
      "name": "getBalance",
      "outputs": [],
      "stateMutability": "nonpayable",
      "type": "function"
    },
    {
      "inputs": [
        {
          "internalType": "address",
          "name": "_agent",
          "type": "address"
        },
        {
          "internalType": "uint256",
          "name": "number",
          "type": "uint256"
        }
      ],
      "name": "remain",
      "outputs": [
        {
          "internalType": "uint256",
          "name": "min",
          "type": "uint256"
        },
        {
          "internalType": "uint256",
          "name": "num",
          "type": "uint256"
        }
      ],
      "stateMutability": "view",
      "type": "function"
    },
    {
      "inputs": [
        {
          "internalType": "address",
          "name": "_agent",
          "type": "address"
        },
        {
          "internalType": "uint256",
          "name": "number",
          "type": "uint256"
        }
      ],
      "name": "getInfo",
      "outputs": [
        {
          "internalType": "string",
          "name": "_contents",
          "type": "string"
        },
        {
          "internalType": "uint256",
          "name": "_openfee",
          "type": "uint256"
        },
        {
          "internalType": "uint256",
          "name": "_deadline",
          "type": "uint256"
        },
        {
          "internalType": "uint256",
          "name": "_goalNum",
          "type": "uint256"
        },
        {
          "internalType": "uint256",
          "name": "_joinfee",
          "type": "uint256"
        },
        {
          "internalType": "address payable[]",
          "name": "_members",
          "type": "address[]"
        }
      ],
      "stateMutability": "view",
      "type": "function"
    }
  ],
  "bytecode": "0x608060405234801561001057600080fd5b50336000806101000a81548173ffffffffffffffffffffffffffffffffffffffff021916908373ffffffffffffffffffffffffffffffffffffffff1602179055506000600260006101000a81548160ff0219169083151502179055506120658061007b6000396000f3fe60806040526004361061009c5760003560e01c80638ae21ae7116100645780638ae21ae71461019557806394c25740146101b15780639b252852146101da578063d8eb1dd714610203578063f83d08ba1461022c578063f851a440146102575761009c565b806312065fe0146100a15780631ac24460146100b85780633b4da69f146100f65780636a91e7bc146101125780637cbd629e14610154575b600080fd5b3480156100ad57600080fd5b506100b6610282565b005b3480156100c457600080fd5b506100df60048036038101906100da91906114c0565b6103c9565b6040516100ed92919061150f565b60405180910390f35b610110600480360381019061010b91906114c0565b61056f565b005b34801561011e57600080fd5b50610139600480360381019061013491906114c0565b6106e6565b60405161014b969594939291906116a1565b60405180910390f35b34801561016057600080fd5b5061017b600480360381019061017691906114c0565b6108a1565b60405161018c959493929190611710565b60405180910390f35b6101af60048036038101906101aa919061189f565b61096c565b005b3480156101bd57600080fd5b506101d860048036038101906101d3919061196e565b610ab0565b005b3480156101e657600080fd5b5061020160048036038101906101fc91906119c7565b610b21565b005b34801561020f57600080fd5b5061022a60048036038101906102259190611b92565b610c28565b005b34801561023857600080fd5b506102416112dd565b60405161024e9190611c7b565b60405180910390f35b34801561026357600080fd5b5061026c6112f0565b6040516102799190611ca5565b60405180910390f35b60008054906101000a900473ffffffffffffffffffffffffffffffffffffffff1673ffffffffffffffffffffffffffffffffffffffff163373ffffffffffffffffffffffffffffffffffffffff16036103c75760001515600260009054906101000a900460ff161515036103c65760008054906101000a900473ffffffffffffffffffffffffffffffffffffffff1673ffffffffffffffffffffffffffffffffffffffff167fd7b10fcf1d9419f4a41574a76c62d23c975e75ce6b49810a9120f56d9608a8b8476040516103569190611cc0565b60405180910390a260008054906101000a900473ffffffffffffffffffffffffffffffffffffffff1673ffffffffffffffffffffffffffffffffffffffff166108fc479081150290604051600060405180830381858888f193505050501580156103c4573d6000803e3d6000fd5b505b5b565b60008060001515600260009054906101000a900460ff1615150361056857600160008573ffffffffffffffffffffffffffffffffffffffff1673ffffffffffffffffffffffffffffffffffffffff16815260200190815260200160002060008481526020019081526020016000206001015442101561056757603c42600160008773ffffffffffffffffffffffffffffffffffffffff1673ffffffffffffffffffffffffffffffffffffffff1681526020019081526020016000206000868152602001908152602001600020600101546104a39190611d0a565b6104ad9190611d6d565b9150600160008573ffffffffffffffffffffffffffffffffffffffff1673ffffffffffffffffffffffffffffffffffffffff168152602001908152602001600020600084815260200190815260200160002060050180549050600160008673ffffffffffffffffffffffffffffffffffffffff1673ffffffffffffffffffffffffffffffffffffffff1681526020019081526020016000206000858152602001908152602001600020600301546105649190611d0a565b90505b5b9250929050565b60001515600260009054906101000a900460ff161515036106e2576000600160008473ffffffffffffffffffffffffffffffffffffffff1673ffffffffffffffffffffffffffffffffffffffff16815260200190815260200160002060008381526020019081526020016000209050428160010154116105ee57600080fd5b80600401543414801561060b575080600501805490508160030154115b61061457600080fd5b80600501339080600181540180825580915050600190039060005260206000200160009091909190916101000a81548173ffffffffffffffffffffffffffffffffffffffff021916908373ffffffffffffffffffffffffffffffffffffffff1602179055503373ffffffffffffffffffffffffffffffffffffffff168373ffffffffffffffffffffffffffffffffffffffff167fae4bce4f1a2d427be54d5ef2c6bacff9dd7fe3130c7ac71c3fd5687abcbed68a84346040516106d892919061150f565b60405180910390a3505b5050565b6060600080600080606060001515600260009054906101000a900460ff16151503610897576000600160008a73ffffffffffffffffffffffffffffffffffffffff1673ffffffffffffffffffffffffffffffffffffffff1681526020019081526020016000206000898152602001908152602001600020905080600001805461076e90611dcd565b80601f016020809104026020016040519081016040528092919081815260200182805461079a90611dcd565b80156107e75780601f106107bc576101008083540402835291602001916107e7565b820191906000526020600020905b8154815290600101906020018083116107ca57829003601f168201915b50505050509650806001015494508060030154935080600201549550806004015492508060050180548060200260200160405190810160405280929190818152602001828054801561088e57602002820191906000526020600020905b8160009054906101000a900473ffffffffffffffffffffffffffffffffffffffff1673ffffffffffffffffffffffffffffffffffffffff1681526020019060010190808311610844575b50505050509150505b9295509295509295565b6001602052816000526040600020602052806000526040600020600091509150508060000180546108d190611dcd565b80601f01602080910402602001604051908101604052809291908181526020018280546108fd90611dcd565b801561094a5780601f1061091f5761010080835404028352916020019161094a565b820191906000526020600020905b81548152906001019060200180831161092d57829003601f168201915b5050505050908060010154908060020154908060030154908060040154905085565b60001515600260009054906101000a900460ff16151503610aa957670de0b6b3a764000034101561099c57600080fd5b6000600160003373ffffffffffffffffffffffffffffffffffffffff1673ffffffffffffffffffffffffffffffffffffffff1681526020019081526020016000206000868152602001908152602001600020905085816000019080519060200190610a08929190611314565b50348160020181905550603c83610a1f9190611dfe565b42610a2a9190611e58565b8160010181905550838160030181905550670de0b6b3a764000082610a4f9190611dfe565b81600401819055503373ffffffffffffffffffffffffffffffffffffffff167f29d5ac1aa8c66fe2a20f3a5b75f10051987b8f04fe66b23afdeb251e64cb45528634604051610a9f92919061150f565b60405180910390a2505b5050505050565b60008054906101000a900473ffffffffffffffffffffffffffffffffffffffff1673ffffffffffffffffffffffffffffffffffffffff163373ffffffffffffffffffffffffffffffffffffffff1603610b1e5780600260006101000a81548160ff0219169083151502179055505b50565b60008054906101000a900473ffffffffffffffffffffffffffffffffffffffff1673ffffffffffffffffffffffffffffffffffffffff163373ffffffffffffffffffffffffffffffffffffffff1603610c245760001515600260009054906101000a900460ff16151503610c2357600160008373ffffffffffffffffffffffffffffffffffffffff1673ffffffffffffffffffffffffffffffffffffffff168152602001908152602001600020600082815260200190815260200160002060008082016000610bf0919061139a565b6001820160009055600282016000905560038201600090556004820160009055600582016000610c2091906113da565b50505b5b5050565b60008054906101000a900473ffffffffffffffffffffffffffffffffffffffff1673ffffffffffffffffffffffffffffffffffffffff163373ffffffffffffffffffffffffffffffffffffffff16036112d45760001515600260009054906101000a900460ff161515036112d3576000600160008973ffffffffffffffffffffffffffffffffffffffff1673ffffffffffffffffffffffffffffffffffffffff1681526020019081526020016000206000888152602001908152602001600020905042816001015410610cfa57600080fd5b6000806000865103610f0d578715610d6d57606460018460020154610d1f9190611dfe565b610d299190611d6d565b8360020154610d389190611d0a565b9150606460018460040154610d4d9190611dfe565b610d579190611d6d565b8360040154610d669190611d0a565b9050610d7c565b82600201549150826004015490505b60005b8360050180549050811015610f07576000858281518110610da357610da2611eae565b5b602002602001015186600081518110610dbf57610dbe611eae565b5b6020026020010151610dd19190611d0a565b83610ddc9190611d0a565b9050846005018281548110610df457610df3611eae565b5b9060005260206000200160009054906101000a900473ffffffffffffffffffffffffffffffffffffffff1673ffffffffffffffffffffffffffffffffffffffff166108fc829081150290604051600060405180830381858888f19350505050158015610e64573d6000803e3d6000fd5b50846005018281548110610e7b57610e7a611eae565b5b9060005260206000200160009054906101000a900473ffffffffffffffffffffffffffffffffffffffff1673ffffffffffffffffffffffffffffffffffffffff167fd7b10fcf1d9419f4a41574a76c62d23c975e75ce6b49810a9120f56d9608a8b882604051610eeb9190611cc0565b60405180910390a2508080610eff90611edd565b915050610d7f565b50611153565b848360020154610f1d9190611e58565b915082600401549050600080600090505b8460050180549050811015611150576000915060005b8851811015610ff657888181518110610f6057610f5f611eae565b5b602002602001015173ffffffffffffffffffffffffffffffffffffffff16866005018381548110610f9457610f93611eae565b5b9060005260206000200160009054906101000a900473ffffffffffffffffffffffffffffffffffffffff1673ffffffffffffffffffffffffffffffffffffffff1603610fe35760019250610ff6565b8080610fee90611edd565b915050610f44565b508161113d57600086828151811061101157611010611eae565b5b6020026020010151846110249190611e58565b905085600501828154811061103c5761103b611eae565b5b9060005260206000200160009054906101000a900473ffffffffffffffffffffffffffffffffffffffff1673ffffffffffffffffffffffffffffffffffffffff166108fc829081150290604051600060405180830381858888f193505050501580156110ac573d6000803e3d6000fd5b508560050182815481106110c3576110c2611eae565b5b9060005260206000200160009054906101000a900473ffffffffffffffffffffffffffffffffffffffff1673ffffffffffffffffffffffffffffffffffffffff167fd7b10fcf1d9419f4a41574a76c62d23c975e75ce6b49810a9120f56d9608a8b8826040516111339190611cc0565b60405180910390a2505b808061114890611edd565b915050610f2e565b50505b8973ffffffffffffffffffffffffffffffffffffffff166108fc839081150290604051600060405180830381858888f19350505050158015611199573d6000803e3d6000fd5b508973ffffffffffffffffffffffffffffffffffffffff167fd7b10fcf1d9419f4a41574a76c62d23c975e75ce6b49810a9120f56d9608a8b8836040516111e09190611cc0565b60405180910390a28973ffffffffffffffffffffffffffffffffffffffff167f27671b55e2bd2383251b71877681912a4d93877e1d1557ed175b8f86fb127a5c8a8a8a8a6040516112349493929190611fe3565b60405180910390a2600160008b73ffffffffffffffffffffffffffffffffffffffff1673ffffffffffffffffffffffffffffffffffffffff16815260200190815260200160002060008a81526020019081526020016000206000808201600061129d919061139a565b60018201600090556002820160009055600382016000905560048201600090556005820160006112cd91906113da565b50505050505b5b50505050505050565b600260009054906101000a900460ff1681565b60008054906101000a900473ffffffffffffffffffffffffffffffffffffffff1681565b82805461132090611dcd565b90600052602060002090601f0160209004810192826113425760008555611389565b82601f1061135b57805160ff1916838001178555611389565b82800160010185558215611389579182015b8281111561138857825182559160200191906001019061136d565b5b50905061139691906113fb565b5090565b5080546113a690611dcd565b6000825580601f106113b857506113d7565b601f0160209004906000526020600020908101906113d691906113fb565b5b50565b50805460008255906000526020600020908101906113f891906113fb565b50565b5b808211156114145760008160009055506001016113fc565b5090565b6000604051905090565b600080fd5b600080fd5b600073ffffffffffffffffffffffffffffffffffffffff82169050919050565b60006114578261142c565b9050919050565b6114678161144c565b811461147257600080fd5b50565b6000813590506114848161145e565b92915050565b6000819050919050565b61149d8161148a565b81146114a857600080fd5b50565b6000813590506114ba81611494565b92915050565b600080604083850312156114d7576114d6611422565b5b60006114e585828601611475565b92505060206114f6858286016114ab565b9150509250929050565b6115098161148a565b82525050565b60006040820190506115246000830185611500565b6115316020830184611500565b9392505050565b600081519050919050565b600082825260208201905092915050565b60005b83811015611572578082015181840152602081019050611557565b83811115611581576000848401525b50505050565b6000601f19601f8301169050919050565b60006115a382611538565b6115ad8185611543565b93506115bd818560208601611554565b6115c681611587565b840191505092915050565b600081519050919050565b600082825260208201905092915050565b6000819050602082019050919050565b60006116088261142c565b9050919050565b611618816115fd565b82525050565b600061162a838361160f565b60208301905092915050565b6000602082019050919050565b600061164e826115d1565b61165881856115dc565b9350611663836115ed565b8060005b8381101561169457815161167b888261161e565b975061168683611636565b925050600181019050611667565b5085935050505092915050565b600060c08201905081810360008301526116bb8189611598565b90506116ca6020830188611500565b6116d76040830187611500565b6116e46060830186611500565b6116f16080830185611500565b81810360a08301526117038184611643565b9050979650505050505050565b600060a082019050818103600083015261172a8188611598565b90506117396020830187611500565b6117466040830186611500565b6117536060830185611500565b6117606080830184611500565b9695505050505050565b600080fd5b600080fd5b7f4e487b7100000000000000000000000000000000000000000000000000000000600052604160045260246000fd5b6117ac82611587565b810181811067ffffffffffffffff821117156117cb576117ca611774565b5b80604052505050565b60006117de611418565b90506117ea82826117a3565b919050565b600067ffffffffffffffff82111561180a57611809611774565b5b61181382611587565b9050602081019050919050565b82818337600083830152505050565b600061184261183d846117ef565b6117d4565b90508281526020810184848401111561185e5761185d61176f565b5b611869848285611820565b509392505050565b600082601f8301126118865761188561176a565b5b813561189684826020860161182f565b91505092915050565b600080600080600060a086880312156118bb576118ba611422565b5b600086013567ffffffffffffffff8111156118d9576118d8611427565b5b6118e588828901611871565b95505060206118f6888289016114ab565b9450506040611907888289016114ab565b9350506060611918888289016114ab565b9250506080611929888289016114ab565b9150509295509295909350565b60008115159050919050565b61194b81611936565b811461195657600080fd5b50565b60008135905061196881611942565b92915050565b60006020828403121561198457611983611422565b5b600061199284828501611959565b91505092915050565b6119a4816115fd565b81146119af57600080fd5b50565b6000813590506119c18161199b565b92915050565b600080604083850312156119de576119dd611422565b5b60006119ec858286016119b2565b92505060206119fd858286016114ab565b9150509250929050565b600067ffffffffffffffff821115611a2257611a21611774565b5b602082029050602081019050919050565b600080fd5b6000611a4b611a4684611a07565b6117d4565b90508083825260208201905060208402830185811115611a6e57611a6d611a33565b5b835b81811015611a975780611a838882611475565b845260208401935050602081019050611a70565b5050509392505050565b600082601f830112611ab657611ab561176a565b5b8135611ac6848260208601611a38565b91505092915050565b600067ffffffffffffffff821115611aea57611ae9611774565b5b602082029050602081019050919050565b6000611b0e611b0984611acf565b6117d4565b90508083825260208201905060208402830185811115611b3157611b30611a33565b5b835b81811015611b5a5780611b4688826114ab565b845260208401935050602081019050611b33565b5050509392505050565b600082601f830112611b7957611b7861176a565b5b8135611b89848260208601611afb565b91505092915050565b600080600080600080600060e0888a031215611bb157611bb0611422565b5b6000611bbf8a828b016119b2565b9750506020611bd08a828b016114ab565b9650506040611be18a828b01611959565b9550506060611bf28a828b01611959565b945050608088013567ffffffffffffffff811115611c1357611c12611427565b5b611c1f8a828b01611aa1565b93505060a0611c308a828b016114ab565b92505060c088013567ffffffffffffffff811115611c5157611c50611427565b5b611c5d8a828b01611b64565b91505092959891949750929550565b611c7581611936565b82525050565b6000602082019050611c906000830184611c6c565b92915050565b611c9f816115fd565b82525050565b6000602082019050611cba6000830184611c96565b92915050565b6000602082019050611cd56000830184611500565b92915050565b7f4e487b7100000000000000000000000000000000000000000000000000000000600052601160045260246000fd5b6000611d158261148a565b9150611d208361148a565b925082821015611d3357611d32611cdb565b5b828203905092915050565b7f4e487b7100000000000000000000000000000000000000000000000000000000600052601260045260246000fd5b6000611d788261148a565b9150611d838361148a565b925082611d9357611d92611d3e565b5b828204905092915050565b7f4e487b7100000000000000000000000000000000000000000000000000000000600052602260045260246000fd5b60006002820490506001821680611de557607f821691505b602082108103611df857611df7611d9e565b5b50919050565b6000611e098261148a565b9150611e148361148a565b9250817fffffffffffffffffffffffffffffffffffffffffffffffffffffffffffffffff0483118215151615611e4d57611e4c611cdb565b5b828202905092915050565b6000611e638261148a565b9150611e6e8361148a565b9250827fffffffffffffffffffffffffffffffffffffffffffffffffffffffffffffffff03821115611ea357611ea2611cdb565b5b828201905092915050565b7f4e487b7100000000000000000000000000000000000000000000000000000000600052603260045260246000fd5b6000611ee88261148a565b91507fffffffffffffffffffffffffffffffffffffffffffffffffffffffffffffffff8203611f1a57611f19611cdb565b5b600182019050919050565b600081519050919050565b600082825260208201905092915050565b6000819050602082019050919050565b611f5a8161144c565b82525050565b6000611f6c8383611f51565b60208301905092915050565b6000602082019050919050565b6000611f9082611f25565b611f9a8185611f30565b9350611fa583611f41565b8060005b83811015611fd6578151611fbd8882611f60565b9750611fc883611f78565b925050600181019050611fa9565b5085935050505092915050565b6000608082019050611ff86000830187611500565b6120056020830186611c6c565b6120126040830185611c6c565b81810360608301526120248184611f85565b90509594505050505056fea26469706673582212202568568b5ee8b8840b930b897d01a027e775b73b43aaa8de3e5eb104995a7a5e64736f6c634300080e0033",
  "immutableReferences": {},
  "source": "// SPDX-License-Identifier: MIT\npragma solidity ^0.8.14; \n\ncontract hug {\n    address payable public admin;\n    mapping(address => mapping(uint => HUG)) public huglist;\n    bool public lock;\n\n    struct HUG{\n        string contents;\n        uint256 deadline;\n        uint256 openfee;\n        uint256 goalNum;\n        uint256 joinfee;\n        address payable[] members;\n    }\n\n    modifier isAdmin() {if(msg.sender == admin)_;}\n    modifier isLock() {if(lock == false)_;}\n\n    event adding(address indexed agent, uint number, uint openfee);\n    event joining(address indexed agent, uint number, address indexed member, uint joinfee);\n    event refunding(address payable indexed addr, uint value);\n    event result(address indexed agent, uint number, bool doit, bool butgo, address[] absentlist);\n\n    constructor() {\n        admin = payable(msg.sender);\n        lock = false;\n    }\n\n\n    function locking(bool key) public isAdmin{\n        lock = key;\n    }\n\n\n    function addHug(string memory _contents, uint number, uint256 _goalNum, uint256 _deadline, uint256 _joinfee) external payable isLock {\n        require(msg.value >= 1 ether);\n\n        HUG storage tmphug = huglist[msg.sender][number];\n        tmphug.contents = _contents;\n        tmphug.openfee = msg.value;\n        tmphug.deadline = block.timestamp + _deadline * 1 minutes;\n        tmphug.goalNum = _goalNum;\n        tmphug.joinfee = _joinfee * 1 ether;\n\n        emit adding(msg.sender, number, msg.value);\n    }\n\n\n    function join(address _agent, uint number) external payable isLock{\n        HUG storage nowHUG = huglist[_agent][number];\n\n        require(nowHUG.deadline > block.timestamp);\n        require(msg.value == nowHUG.joinfee && nowHUG.goalNum > nowHUG.members.length);\n\n        nowHUG.members.push(payable(msg.sender));\n\n        emit joining(_agent, number, msg.sender, msg.value);\n    }\n\n    function reset(address payable _agent, uint number) public isAdmin isLock{\n        delete huglist[_agent][number];\n    }\n\n    function refund(address payable _agent, uint number, bool doit, bool butgo, address[] memory absentlist, uint opengas, uint[] memory joingas) public isAdmin isLock{\n        HUG storage nowHUG = huglist[_agent][number];        \n\n        require(nowHUG.deadline < block.timestamp);\n\n        uint forAgent;\n        uint forMember;\n\n        if(absentlist.length == 0)\n        {\n            if(doit)\n            {   \n                {\n                    forAgent = nowHUG.openfee - (nowHUG.openfee * 1/100);    \n                    forMember = nowHUG.joinfee - (nowHUG.joinfee * 1/100);\n                }\n            }\n            else\n            {\n                forAgent = nowHUG.openfee;\n                forMember = nowHUG.joinfee;\n            }\n\n          \n            for(uint i = 0; i < nowHUG.members.length; i++)    \n            {   \n                uint tmpforMember = forMember - ( joingas[0] - joingas[i]);\n                nowHUG.members[i].transfer(tmpforMember);\n                emit refunding(nowHUG.members[i], tmpforMember);\n            }\n\n        }\n        else\n        {   \n            forAgent = nowHUG.openfee + opengas;\n            forMember = nowHUG.joinfee;\n            bool del;\n\n            for(uint i = 0; i < nowHUG.members.length; i++)\n            {   \n                del = false;\n                for(uint j = 0; j < absentlist.length; j++)\n                {\n                    if(nowHUG.members[i] == absentlist[j])\n                    {\n                        del = true;\n                        break;\n                    }\n                }\n                if(!del)\n                {\n                    uint tmpforMember = forMember + joingas[i];\n                    nowHUG.members[i].transfer(tmpforMember);\n                    emit refunding(nowHUG.members[i], tmpforMember);\n                }\n            }\n        }\n        \n        _agent.transfer(forAgent);\n        emit refunding(_agent, forAgent);\n        \n            \n        emit result(_agent, number, doit, butgo, absentlist);\n        \n        delete huglist[_agent][number];\n    }\n\n    function getBalance() public isAdmin isLock{\n        emit refunding(admin, address(this).balance);\n        admin.transfer(address(this).balance);\n    }\n\n    function remain(address _agent, uint number) public isLock view returns (uint256 min, uint256 num){\n        if(block.timestamp < huglist[_agent][number].deadline)\n        {   \n            min = (huglist[_agent][number].deadline - block.timestamp) / (1 minutes);\n            num = (huglist[_agent][number].goalNum - huglist[_agent][number].members.length);\n        }\n    }\n\n    function getInfo(address _agent, uint number) public isLock view returns (string memory _contents, uint256 _openfee, uint256 _deadline, uint256 _goalNum, uint256 _joinfee, address payable [] memory _members){\n        HUG storage tmpHUG = huglist[_agent][number];\n\n        _contents = tmpHUG.contents;\n        _deadline = tmpHUG.deadline;\n        _goalNum = tmpHUG.goalNum;\n        _openfee = tmpHUG.openfee;\n        _joinfee = tmpHUG.joinfee;\n        _members = tmpHUG.members;\n    }\n}\n\n",
  "sourcePath": "/home/HUGDapp/hug-contract/contracts/HUG.sol",
  "compiler": {
    "name": "solc",
    "version": "0.8.14+commit.80d49f37.Emscripten.clang"
  },
  "schemaVersion": "3.4.7",
  "updatedAt": "2022-08-23T07:49:19.321Z",
  "devdoc": {
    "kind": "dev",
    "methods": {},
    "version": 1
  },
  "userdoc": {
    "kind": "user",
    "methods": {},
    "version": 1
  }
}