{
  "contractName": "donsildonsil",
  "abi": [
    {
      "inputs": [],
      "stateMutability": "nonpayable",
      "type": "constructor"
    },
    {
      "inputs": [],
      "name": "admin",
      "outputs": [
        {
          "internalType": "address",
          "name": "",
          "type": "address"
        }
      ],
      "stateMutability": "view",
      "type": "function",
      "constant": true
    },
    {
      "inputs": [
        {
          "internalType": "uint256",
          "name": "",
          "type": "uint256"
        }
      ],
      "name": "judgelist",
      "outputs": [
        {
          "internalType": "string",
          "name": "judgeType",
          "type": "string"
        },
        {
          "internalType": "uint256",
          "name": "judgeDate",
          "type": "uint256"
        },
        {
          "internalType": "bool",
          "name": "pass",
          "type": "bool"
        },
        {
          "internalType": "uint256",
          "name": "age",
          "type": "uint256"
        },
        {
          "internalType": "uint256",
          "name": "gender",
          "type": "uint256"
        },
        {
          "internalType": "uint256",
          "name": "salary",
          "type": "uint256"
        },
        {
          "internalType": "uint256",
          "name": "transactionNum",
          "type": "uint256"
        },
        {
          "internalType": "uint256",
          "name": "asset",
          "type": "uint256"
        },
        {
          "internalType": "uint256",
          "name": "creditPoint",
          "type": "uint256"
        },
        {
          "internalType": "uint256",
          "name": "loan",
          "type": "uint256"
        },
        {
          "internalType": "uint256",
          "name": "loanDate",
          "type": "uint256"
        }
      ],
      "stateMutability": "view",
      "type": "function",
      "constant": true
    },
    {
      "inputs": [],
      "name": "totalNum",
      "outputs": [
        {
          "internalType": "uint256",
          "name": "",
          "type": "uint256"
        }
      ],
      "stateMutability": "view",
      "type": "function",
      "constant": true
    },
    {
      "inputs": [
        {
          "internalType": "string",
          "name": "_judgeType",
          "type": "string"
        },
        {
          "internalType": "uint256",
          "name": "_judgeDate",
          "type": "uint256"
        },
        {
          "internalType": "bool",
          "name": "_pass",
          "type": "bool"
        },
        {
          "internalType": "uint256",
          "name": "_age",
          "type": "uint256"
        },
        {
          "internalType": "uint256",
          "name": "_gender",
          "type": "uint256"
        },
        {
          "internalType": "uint256",
          "name": "_salary",
          "type": "uint256"
        },
        {
          "internalType": "uint256",
          "name": "_transactionNum",
          "type": "uint256"
        },
        {
          "internalType": "uint256",
          "name": "_asset",
          "type": "uint256"
        },
        {
          "internalType": "uint256",
          "name": "_loan",
          "type": "uint256"
        },
        {
          "internalType": "uint256",
          "name": "_loanDate",
          "type": "uint256"
        }
      ],
      "name": "write",
      "outputs": [],
      "stateMutability": "nonpayable",
      "type": "function"
    },
    {
      "inputs": [
        {
          "internalType": "uint256",
          "name": "_number",
          "type": "uint256"
        }
      ],
      "name": "show",
      "outputs": [
        {
          "internalType": "string",
          "name": "_judgeType",
          "type": "string"
        },
        {
          "internalType": "uint256",
          "name": "_judgeDate",
          "type": "uint256"
        },
        {
          "internalType": "bool",
          "name": "_pass",
          "type": "bool"
        },
        {
          "internalType": "uint256",
          "name": "_age",
          "type": "uint256"
        },
        {
          "internalType": "uint256",
          "name": "_gender",
          "type": "uint256"
        },
        {
          "internalType": "uint256",
          "name": "_salary",
          "type": "uint256"
        },
        {
          "internalType": "uint256",
          "name": "_transactionNum",
          "type": "uint256"
        },
        {
          "internalType": "uint256",
          "name": "_asset",
          "type": "uint256"
        },
        {
          "internalType": "uint256",
          "name": "_loan",
          "type": "uint256"
        },
        {
          "internalType": "uint256",
          "name": "_loanDate",
          "type": "uint256"
        }
      ],
      "stateMutability": "view",
      "type": "function",
      "constant": true
    }
  ],
  "bytecode": "0x608060405234801561001057600080fd5b50336000806101000a81548173ffffffffffffffffffffffffffffffffffffffff021916908373ffffffffffffffffffffffffffffffffffffffff1602179055506000600281905550610b80806100686000396000f3fe608060405234801561001057600080fd5b50600436106100575760003560e01c806304a7ff181461005c5780638b514ed71461007a578063c6f125b1146100b3578063ee572bb7146100cf578063f851a44014610109575b600080fd5b610064610127565b604051610071919061051c565b60405180910390f35b610094600480360381019061008f9190610577565b61012d565b6040516100aa9a99989796959493929190610658565b60405180910390f35b6100cd60048036038101906100c8919061085c565b61023c565b005b6100e960048036038101906100e49190610577565b61034d565b6040516101009b9a99989796959493929190610957565b60405180910390f35b61011161043c565b60405161011e9190610a4a565b60405180910390f35b60025481565b6060600080600080600080600080600080600160008d8152602001908152602001600020905080600001805461016290610a94565b80601f016020809104026020016040519081016040528092919081815260200182805461018e90610a94565b80156101db5780601f106101b0576101008083540402835291602001916101db565b820191906000526020600020905b8154815290600101906020018083116101be57829003601f168201915b50505050509a50806001015499508060020160009054906101000a900460ff16985080600301549750806004015496508060050154955080600601549450806007015493508060090154925080600a01549150509193959799509193959799565b60008054906101000a900473ffffffffffffffffffffffffffffffffffffffff1673ffffffffffffffffffffffffffffffffffffffff163373ffffffffffffffffffffffffffffffffffffffff1603610341576001600260008282546102a29190610af4565b92505081905550600060016000600254815260200190815260200160002090508a8160000190805190602001906102da929190610460565b50898160010181905550888160020160006101000a81548160ff0219169083151502179055508781600301819055508681600401819055508581600501819055508481600601819055508381600701819055508281600901819055508181600a0181905550505b50505050505050505050565b600160205280600052604060002060009150905080600001805461037090610a94565b80601f016020809104026020016040519081016040528092919081815260200182805461039c90610a94565b80156103e95780601f106103be576101008083540402835291602001916103e9565b820191906000526020600020905b8154815290600101906020018083116103cc57829003601f168201915b5050505050908060010154908060020160009054906101000a900460ff169080600301549080600401549080600501549080600601549080600701549080600801549080600901549080600a015490508b565b60008054906101000a900473ffffffffffffffffffffffffffffffffffffffff1681565b82805461046c90610a94565b90600052602060002090601f01602090048101928261048e57600085556104d5565b82601f106104a757805160ff19168380011785556104d5565b828001600101855582156104d5579182015b828111156104d45782518255916020019190600101906104b9565b5b5090506104e291906104e6565b5090565b5b808211156104ff5760008160009055506001016104e7565b5090565b6000819050919050565b61051681610503565b82525050565b6000602082019050610531600083018461050d565b92915050565b6000604051905090565b600080fd5b600080fd5b61055481610503565b811461055f57600080fd5b50565b6000813590506105718161054b565b92915050565b60006020828403121561058d5761058c610541565b5b600061059b84828501610562565b91505092915050565b600081519050919050565b600082825260208201905092915050565b60005b838110156105de5780820151818401526020810190506105c3565b838111156105ed576000848401525b50505050565b6000601f19601f8301169050919050565b600061060f826105a4565b61061981856105af565b93506106298185602086016105c0565b610632816105f3565b840191505092915050565b60008115159050919050565b6106528161063d565b82525050565b6000610140820190508181036000830152610673818d610604565b9050610682602083018c61050d565b61068f604083018b610649565b61069c606083018a61050d565b6106a9608083018961050d565b6106b660a083018861050d565b6106c360c083018761050d565b6106d060e083018661050d565b6106de61010083018561050d565b6106ec61012083018461050d565b9b9a5050505050505050505050565b600080fd5b600080fd5b7f4e487b7100000000000000000000000000000000000000000000000000000000600052604160045260246000fd5b61073d826105f3565b810181811067ffffffffffffffff8211171561075c5761075b610705565b5b80604052505050565b600061076f610537565b905061077b8282610734565b919050565b600067ffffffffffffffff82111561079b5761079a610705565b5b6107a4826105f3565b9050602081019050919050565b82818337600083830152505050565b60006107d36107ce84610780565b610765565b9050828152602081018484840111156107ef576107ee610700565b5b6107fa8482856107b1565b509392505050565b600082601f830112610817576108166106fb565b5b81356108278482602086016107c0565b91505092915050565b6108398161063d565b811461084457600080fd5b50565b60008135905061085681610830565b92915050565b6000806000806000806000806000806101408b8d0312156108805761087f610541565b5b60008b013567ffffffffffffffff81111561089e5761089d610546565b5b6108aa8d828e01610802565b9a505060206108bb8d828e01610562565b99505060406108cc8d828e01610847565b98505060606108dd8d828e01610562565b97505060806108ee8d828e01610562565b96505060a06108ff8d828e01610562565b95505060c06109108d828e01610562565b94505060e06109218d828e01610562565b9350506101006109338d828e01610562565b9250506101206109458d828e01610562565b9150509295989b9194979a5092959850565b6000610160820190508181036000830152610972818e610604565b9050610981602083018d61050d565b61098e604083018c610649565b61099b606083018b61050d565b6109a8608083018a61050d565b6109b560a083018961050d565b6109c260c083018861050d565b6109cf60e083018761050d565b6109dd61010083018661050d565b6109eb61012083018561050d565b6109f961014083018461050d565b9c9b505050505050505050505050565b600073ffffffffffffffffffffffffffffffffffffffff82169050919050565b6000610a3482610a09565b9050919050565b610a4481610a29565b82525050565b6000602082019050610a5f6000830184610a3b565b92915050565b7f4e487b7100000000000000000000000000000000000000000000000000000000600052602260045260246000fd5b60006002820490506001821680610aac57607f821691505b602082108103610abf57610abe610a65565b5b50919050565b7f4e487b7100000000000000000000000000000000000000000000000000000000600052601160045260246000fd5b6000610aff82610503565b9150610b0a83610503565b9250827fffffffffffffffffffffffffffffffffffffffffffffffffffffffffffffffff03821115610b3f57610b3e610ac5565b5b82820190509291505056fea2646970667358221220923f1d87f7e2c9e31c114998928ec5aed66aad4ca44a17bddbabfd075b162e6564736f6c634300080e0033",
  "immutableReferences": {},
  "source": "// SPDX-License-Identifier: MIT\npragma solidity ^0.8.14; \n\ncontract donsildonsil {\n    address public admin;\n    mapping(uint256 => Judge) public judgelist;\n    uint256 public totalNum;\n\n    struct Judge {                     \n        string judgeType;\n        uint256 judgeDate;\n        bool pass;\n        uint256 age;\n        uint256 gender;\n        uint256 salary;\n        uint256 transactionNum;\n        uint256 asset;\n        uint256 creditPoint;\n        uint256 loan;\n        uint256 loanDate;\n    }\n\n    modifier isAdmin() {if(msg.sender == admin)_;}\n\n    constructor() {\n        admin = msg.sender;\n        totalNum = 0;\n    }\n\n    function write(string memory _judgeType, uint256 _judgeDate, bool _pass, uint256 _age, uint256 _gender, uint256 _salary, uint256 _transactionNum, uint256 _asset, uint256 _loan, uint256 _loanDate) public isAdmin {\n        totalNum += 1;\n        Judge storage tmpjudge = judgelist[totalNum];\n        tmpjudge.judgeType = _judgeType;\n        tmpjudge.judgeDate = _judgeDate;\n        tmpjudge.pass = _pass;\n        tmpjudge.age = _age;\n        tmpjudge.gender = _gender;\n        tmpjudge.salary = _salary;\n        tmpjudge.transactionNum = _transactionNum;\n        tmpjudge.asset = _asset;\n        tmpjudge.loan = _loan;\n        tmpjudge.loanDate = _loanDate;\n    }\n\n    \n    function show(uint _number) public view returns (string memory _judgeType, uint256 _judgeDate, bool _pass, uint256 _age, uint256 _gender, uint256 _salary, uint256 _transactionNum, uint256 _asset, uint256 _loan, uint256 _loanDate){\n        Judge storage tmpjudge = judgelist[_number];\n        _judgeType = tmpjudge.judgeType;\n        _judgeDate = tmpjudge.judgeDate;\n        _pass = tmpjudge.pass;\n        _age = tmpjudge.age;\n        _gender = tmpjudge.gender;\n        _salary = tmpjudge.salary;\n        _transactionNum = tmpjudge.transactionNum;\n        _asset = tmpjudge.asset;\n        _loan =  tmpjudge.loan;\n        _loanDate =  tmpjudge.loanDate;\n    }\n}\n\n",
  "sourcePath": "/home/donsildonsilDapp/dd-contract/contracts/donsildonsil.sol",
  "compiler": {
    "name": "solc",
    "version": "0.8.14+commit.80d49f37.Emscripten.clang"
  },
  "schemaVersion": "3.4.7",
  "updatedAt": "2022-11-16T07:24:21.762Z",
  "networkType": "ethereum",
  "devdoc": {
    "kind": "dev",
    "methods": {},
    "version": 1
  },
  "userdoc": {
    "kind": "user",
    "methods": {},
    "version": 1
  }
}